{
  "contractName": "FarmerContract",
  "abi": [
    {
      "inputs": [],
      "stateMutability": "nonpayable",
      "type": "constructor"
    },
    {
      "anonymous": false,
      "inputs": [
        {
          "indexed": true,
          "internalType": "uint256",
          "name": "id",
          "type": "uint256"
        },
        {
          "indexed": false,
          "internalType": "string",
          "name": "name",
          "type": "string"
        },
        {
          "indexed": false,
          "internalType": "string",
          "name": "hash",
          "type": "string"
        },
        {
          "indexed": false,
          "internalType": "uint256",
          "name": "plantingTime",
          "type": "uint256"
        }
      ],
      "name": "CropAdded",
      "type": "event"
    },
    {
      "anonymous": false,
      "inputs": [
        {
          "indexed": true,
          "internalType": "uint256",
          "name": "id",
          "type": "uint256"
        },
        {
          "indexed": false,
          "internalType": "uint256",
          "name": "harvestTime",
          "type": "uint256"
        }
      ],
      "name": "CropHarvested",
      "type": "event"
    },
    {
      "inputs": [
        {
          "internalType": "string",
          "name": "",
          "type": "string"
        }
      ],
      "name": "cropHashExists",
      "outputs": [
        {
          "internalType": "bool",
          "name": "",
          "type": "bool"
        }
      ],
      "stateMutability": "view",
      "type": "function",
      "constant": true
    },
    {
      "inputs": [],
      "name": "cropIdCounter",
      "outputs": [
        {
          "internalType": "uint256",
          "name": "",
          "type": "uint256"
        }
      ],
      "stateMutability": "view",
      "type": "function",
      "constant": true
    },
    {
      "inputs": [
        {
          "internalType": "uint256",
          "name": "",
          "type": "uint256"
        }
      ],
      "name": "crops",
      "outputs": [
        {
          "internalType": "uint256",
          "name": "id",
          "type": "uint256"
        },
        {
          "internalType": "string",
          "name": "name",
          "type": "string"
        },
        {
          "internalType": "string",
          "name": "hash",
          "type": "string"
        },
        {
          "internalType": "string",
          "name": "image",
          "type": "string"
        },
        {
          "internalType": "uint256",
          "name": "plantingTime",
          "type": "uint256"
        },
        {
          "internalType": "uint256",
          "name": "harvestTime",
          "type": "uint256"
        },
        {
          "internalType": "string",
          "name": "source",
          "type": "string"
        },
        {
          "internalType": "string",
          "name": "fertilizerType",
          "type": "string"
        },
        {
          "internalType": "string",
          "name": "pesticideUse",
          "type": "string"
        },
        {
          "internalType": "uint8",
          "name": "status",
          "type": "uint8"
        }
      ],
      "stateMutability": "view",
      "type": "function",
      "constant": true
    },
    {
      "inputs": [],
      "name": "owner",
      "outputs": [
        {
          "internalType": "address",
          "name": "",
          "type": "address"
        }
      ],
      "stateMutability": "view",
      "type": "function",
      "constant": true
    },
    {
      "inputs": [
        {
          "internalType": "string",
          "name": "_name",
          "type": "string"
        },
        {
          "internalType": "string",
          "name": "_hash",
          "type": "string"
        },
        {
          "internalType": "string",
          "name": "_image",
          "type": "string"
        },
        {
          "internalType": "uint256",
          "name": "_plantingTime",
          "type": "uint256"
        },
        {
          "internalType": "string",
          "name": "_source",
          "type": "string"
        },
        {
          "internalType": "string",
          "name": "_fertilizerType",
          "type": "string"
        },
        {
          "internalType": "string",
          "name": "_pesticideUse",
          "type": "string"
        }
      ],
      "name": "addCrop",
      "outputs": [],
      "stateMutability": "nonpayable",
      "type": "function"
    },
    {
      "inputs": [
        {
          "internalType": "uint256",
          "name": "_id",
          "type": "uint256"
        }
      ],
      "name": "harvestCrop",
      "outputs": [],
      "stateMutability": "nonpayable",
      "type": "function"
    },
    {
      "inputs": [
        {
          "internalType": "uint256",
          "name": "_id",
          "type": "uint256"
        }
      ],
      "name": "getCropById",
      "outputs": [
        {
          "components": [
            {
              "internalType": "uint256",
              "name": "id",
              "type": "uint256"
            },
            {
              "internalType": "string",
              "name": "name",
              "type": "string"
            },
            {
              "internalType": "string",
              "name": "hash",
              "type": "string"
            },
            {
              "internalType": "string",
              "name": "image",
              "type": "string"
            },
            {
              "internalType": "uint256",
              "name": "plantingTime",
              "type": "uint256"
            },
            {
              "internalType": "uint256",
              "name": "harvestTime",
              "type": "uint256"
            },
            {
              "internalType": "string",
              "name": "source",
              "type": "string"
            },
            {
              "internalType": "string",
              "name": "fertilizerType",
              "type": "string"
            },
            {
              "internalType": "string",
              "name": "pesticideUse",
              "type": "string"
            },
            {
              "internalType": "uint8",
              "name": "status",
              "type": "uint8"
            }
          ],
          "internalType": "struct FarmerContract.Crop",
          "name": "crop",
          "type": "tuple"
        }
      ],
      "stateMutability": "view",
      "type": "function",
      "constant": true
    }
  ],
  "bytecode": "0x608060405234801561001057600080fd5b50336000806101000a81548173ffffffffffffffffffffffffffffffffffffffff021916908373ffffffffffffffffffffffffffffffffffffffff160217905550611b6f806100606000396000f3fe608060405234801561001057600080fd5b506004361061009a576000357c01000000000000000000000000000000000000000000000000000000009004806370c9f1a51161007857806370c9f1a51461011b5780638da5cb5b146101545780638f5c06d514610172578063df3e7ec81461018e5761009a565b80631a80f48e1461009f5780632a674aa8146100cf5780635d0cc38f146100ff575b600080fd5b6100b960048036038101906100b49190610f8a565b6101ac565b6040516100c69190610fee565b60405180910390f35b6100e960048036038101906100e4919061103f565b6101e2565b6040516100f69190611213565b60405180910390f35b6101196004803603810190610114919061103f565b6105b7565b005b6101356004803603810190610130919061103f565b610761565b60405161014b9a9998979695949392919061129d565b60405180910390f35b61015c610af2565b60405161016991906113a4565b60405180910390f35b61018c600480360381019061018791906113bf565b610b16565b005b610196610dd4565b6040516101a39190611509565b60405180910390f35b6002818051602081018201805184825260208301602085012081835280955050505050506000915054906101000a900460ff1681565b6101ea610dda565b60016000838152602001908152602001600020604051806101400160405290816000820154815260200160018201805461022390611553565b80601f016020809104026020016040519081016040528092919081815260200182805461024f90611553565b801561029c5780601f106102715761010080835404028352916020019161029c565b820191906000526020600020905b81548152906001019060200180831161027f57829003601f168201915b505050505081526020016002820180546102b590611553565b80601f01602080910402602001604051908101604052809291908181526020018280546102e190611553565b801561032e5780601f106103035761010080835404028352916020019161032e565b820191906000526020600020905b81548152906001019060200180831161031157829003601f168201915b5050505050815260200160038201805461034790611553565b80601f016020809104026020016040519081016040528092919081815260200182805461037390611553565b80156103c05780601f10610395576101008083540402835291602001916103c0565b820191906000526020600020905b8154815290600101906020018083116103a357829003601f168201915b5050505050815260200160048201548152602001600582015481526020016006820180546103ed90611553565b80601f016020809104026020016040519081016040528092919081815260200182805461041990611553565b80156104665780601f1061043b57610100808354040283529160200191610466565b820191906000526020600020905b81548152906001019060200180831161044957829003601f168201915b5050505050815260200160078201805461047f90611553565b80601f01602080910402602001604051908101604052809291908181526020018280546104ab90611553565b80156104f85780601f106104cd576101008083540402835291602001916104f8565b820191906000526020600020905b8154815290600101906020018083116104db57829003601f168201915b5050505050815260200160088201805461051190611553565b80601f016020809104026020016040519081016040528092919081815260200182805461053d90611553565b801561058a5780601f1061055f5761010080835404028352916020019161058a565b820191906000526020600020905b81548152906001019060200180831161056d57829003601f168201915b505050505081526020016009820160009054906101000a900460ff1660ff1660ff16815250509050919050565b60008054906101000a900473ffffffffffffffffffffffffffffffffffffffff1673ffffffffffffffffffffffffffffffffffffffff163373ffffffffffffffffffffffffffffffffffffffff1614610645576040517f08c379a000000000000000000000000000000000000000000000000000000000815260040161063c906115f6565b60405180910390fd5b600060016000838152602001908152602001600020905060008160000154036106a3576040517f08c379a000000000000000000000000000000000000000000000000000000000815260040161069a90611662565b60405180910390fd5b60018160090160009054906101000a900460ff1660ff16146106fa576040517f08c379a00000000000000000000000000000000000000000000000000000000081526004016106f1906116f4565b60405180910390fd5b42816005018190555060028160090160006101000a81548160ff021916908360ff160217905550817fa40e5d184b5d57607138dca83d3cadec8ee5df8416ffba1890b953bfba525bbd82600501546040516107559190611509565b60405180910390a25050565b600160205280600052604060002060009150905080600001549080600101805461078a90611553565b80601f01602080910402602001604051908101604052809291908181526020018280546107b690611553565b80156108035780601f106107d857610100808354040283529160200191610803565b820191906000526020600020905b8154815290600101906020018083116107e657829003601f168201915b50505050509080600201805461081890611553565b80601f016020809104026020016040519081016040528092919081815260200182805461084490611553565b80156108915780601f1061086657610100808354040283529160200191610891565b820191906000526020600020905b81548152906001019060200180831161087457829003601f168201915b5050505050908060030180546108a690611553565b80601f01602080910402602001604051908101604052809291908181526020018280546108d290611553565b801561091f5780601f106108f45761010080835404028352916020019161091f565b820191906000526020600020905b81548152906001019060200180831161090257829003601f168201915b50505050509080600401549080600501549080600601805461094090611553565b80601f016020809104026020016040519081016040528092919081815260200182805461096c90611553565b80156109b95780601f1061098e576101008083540402835291602001916109b9565b820191906000526020600020905b81548152906001019060200180831161099c57829003601f168201915b5050505050908060070180546109ce90611553565b80601f01602080910402602001604051908101604052809291908181526020018280546109fa90611553565b8015610a475780601f10610a1c57610100808354040283529160200191610a47565b820191906000526020600020905b815481529060010190602001808311610a2a57829003601f168201915b505050505090806008018054610a5c90611553565b80601f0160208091040260200160405190810160405280929190818152602001828054610a8890611553565b8015610ad55780601f10610aaa57610100808354040283529160200191610ad5565b820191906000526020600020905b815481529060010190602001808311610ab857829003601f168201915b5050505050908060090160009054906101000a900460ff1690508a565b60008054906101000a900473ffffffffffffffffffffffffffffffffffffffff1681565b60008054906101000a900473ffffffffffffffffffffffffffffffffffffffff1673ffffffffffffffffffffffffffffffffffffffff163373ffffffffffffffffffffffffffffffffffffffff1614610ba4576040517f08c379a0000000000000000000000000000000000000000000000000000000008152600401610b9b906115f6565b60405180910390fd5b600286604051610bb49190611750565b908152602001604051809103902060009054906101000a900460ff1615610c10576040517f08c379a0000000000000000000000000000000000000000000000000000000008152600401610c07906117d9565b60405180910390fd5b600060036000815480929190610c2590611828565b91905055905060006040518061014001604052808381526020018a815260200189815260200188815260200187815260200160008152602001868152602001858152602001848152602001600160ff1681525090508060016000848152602001908152602001600020600082015181600001556020820151816001019081610cad9190611a22565b506040820151816002019081610cc39190611a22565b506060820151816003019081610cd99190611a22565b506080820151816004015560a0820151816005015560c0820151816006019081610d039190611a22565b5060e0820151816007019081610d199190611a22565b50610100820151816008019081610d309190611a22565b506101208201518160090160006101000a81548160ff021916908360ff1602179055509050506001600289604051610d689190611750565b908152602001604051809103902060006101000a81548160ff021916908315150217905550817ff45e2cf5bcc68176857ea70de9f163e4004214c4c8315ef2ec729a5032a70bfc8a8a89604051610dc193929190611af4565b60405180910390a2505050505050505050565b60035481565b604051806101400160405280600081526020016060815260200160608152602001606081526020016000815260200160008152602001606081526020016060815260200160608152602001600060ff1681525090565b6000604051905090565b600080fd5b600080fd5b600080fd5b600080fd5b6000601f19601f8301169050919050565b7f4e487b7100000000000000000000000000000000000000000000000000000000600052604160045260246000fd5b610e9782610e4e565b810181811067ffffffffffffffff82111715610eb657610eb5610e5f565b5b80604052505050565b6000610ec9610e30565b9050610ed58282610e8e565b919050565b600067ffffffffffffffff821115610ef557610ef4610e5f565b5b610efe82610e4e565b9050602081019050919050565b82818337600083830152505050565b6000610f2d610f2884610eda565b610ebf565b905082815260208101848484011115610f4957610f48610e49565b5b610f54848285610f0b565b509392505050565b600082601f830112610f7157610f70610e44565b5b8135610f81848260208601610f1a565b91505092915050565b600060208284031215610fa057610f9f610e3a565b5b600082013567ffffffffffffffff811115610fbe57610fbd610e3f565b5b610fca84828501610f5c565b91505092915050565b60008115159050919050565b610fe881610fd3565b82525050565b60006020820190506110036000830184610fdf565b92915050565b6000819050919050565b61101c81611009565b811461102757600080fd5b50565b60008135905061103981611013565b92915050565b60006020828403121561105557611054610e3a565b5b60006110638482850161102a565b91505092915050565b61107581611009565b82525050565b600081519050919050565b600082825260208201905092915050565b60005b838110156110b557808201518184015260208101905061109a565b60008484015250505050565b60006110cc8261107b565b6110d68185611086565b93506110e6818560208601611097565b6110ef81610e4e565b840191505092915050565b600060ff82169050919050565b611110816110fa565b82525050565b60006101408301600083015161112f600086018261106c565b506020830151848203602086015261114782826110c1565b9150506040830151848203604086015261116182826110c1565b9150506060830151848203606086015261117b82826110c1565b9150506080830151611190608086018261106c565b5060a08301516111a360a086018261106c565b5060c083015184820360c08601526111bb82826110c1565b91505060e083015184820360e08601526111d582826110c1565b9150506101008301518482036101008601526111f182826110c1565b915050610120830151611208610120860182611107565b508091505092915050565b6000602082019050818103600083015261122d8184611116565b905092915050565b61123e81611009565b82525050565b600082825260208201905092915050565b60006112608261107b565b61126a8185611244565b935061127a818560208601611097565b61128381610e4e565b840191505092915050565b611297816110fa565b82525050565b6000610140820190506112b3600083018d611235565b81810360208301526112c5818c611255565b905081810360408301526112d9818b611255565b905081810360608301526112ed818a611255565b90506112fc6080830189611235565b61130960a0830188611235565b81810360c083015261131b8187611255565b905081810360e083015261132f8186611255565b90508181036101008301526113448185611255565b905061135461012083018461128e565b9b9a5050505050505050505050565b600073ffffffffffffffffffffffffffffffffffffffff82169050919050565b600061138e82611363565b9050919050565b61139e81611383565b82525050565b60006020820190506113b96000830184611395565b92915050565b600080600080600080600060e0888a0312156113de576113dd610e3a565b5b600088013567ffffffffffffffff8111156113fc576113fb610e3f565b5b6114088a828b01610f5c565b975050602088013567ffffffffffffffff81111561142957611428610e3f565b5b6114358a828b01610f5c565b965050604088013567ffffffffffffffff81111561145657611455610e3f565b5b6114628a828b01610f5c565b95505060606114738a828b0161102a565b945050608088013567ffffffffffffffff81111561149457611493610e3f565b5b6114a08a828b01610f5c565b93505060a088013567ffffffffffffffff8111156114c1576114c0610e3f565b5b6114cd8a828b01610f5c565b92505060c088013567ffffffffffffffff8111156114ee576114ed610e3f565b5b6114fa8a828b01610f5c565b91505092959891949750929550565b600060208201905061151e6000830184611235565b92915050565b7f4e487b7100000000000000000000000000000000000000000000000000000000600052602260045260246000fd5b6000600282049050600182168061156b57607f821691505b60208210810361157e5761157d611524565b5b50919050565b7f4163636573732064656e6965643a204f6e6c792070726f64756365722063616e60008201527f20706572666f726d207468697320616374696f6e000000000000000000000000602082015250565b60006115e0603483611244565b91506115eb82611584565b604082019050919050565b6000602082019050818103600083015261160f816115d3565b9050919050565b7f4572726f723a2043726f7020646f6573206e6f74206578697374000000000000600082015250565b600061164c601a83611244565b915061165782611616565b602082019050919050565b6000602082019050818103600083015261167b8161163f565b9050919050565b7f4572726f723a2043726f702068617320616c7265616479206265656e2068617260008201527f7665737465640000000000000000000000000000000000000000000000000000602082015250565b60006116de602683611244565b91506116e982611682565b604082019050919050565b6000602082019050818103600083015261170d816116d1565b9050919050565b600081905092915050565b600061172a8261107b565b6117348185611714565b9350611744818560208601611097565b80840191505092915050565b600061175c828461171f565b915081905092915050565b7f4572726f723a2043726f7020776974682074686973206861736820616c72656160008201527f6479206578697374730000000000000000000000000000000000000000000000602082015250565b60006117c3602983611244565b91506117ce82611767565b604082019050919050565b600060208201905081810360008301526117f2816117b6565b9050919050565b7f4e487b7100000000000000000000000000000000000000000000000000000000600052601160045260246000fd5b600061183382611009565b91507fffffffffffffffffffffffffffffffffffffffffffffffffffffffffffffffff8203611865576118646117f9565b5b600182019050919050565b60008190508160005260206000209050919050565b60006020601f8301049050919050565b60008160020a8302905092915050565b6000600883026118d57fffffffffffffffffffffffffffffffffffffffffffffffffffffffffffffffff82611895565b6118df8683611895565b95508019841693508086168417925050509392505050565b6000819050919050565b600061191c61191761191284611009565b6118f7565b611009565b9050919050565b6000819050919050565b61193683611901565b61194a61194282611923565b8484546118a5565b825550505050565b600090565b61195f611952565b61196a81848461192d565b505050565b5b8181101561198e57611983600082611957565b600181019050611970565b5050565b601f8211156119d3576119a481611870565b6119ad84611885565b810160208510156119bc578190505b6119d06119c885611885565b83018261196f565b50505b505050565b60008160020a8304905092915050565b60006119f9600019846008026119d8565b1980831691505092915050565b6000611a1283836119e8565b9150826002028217905092915050565b611a2b8261107b565b67ffffffffffffffff811115611a4457611a43610e5f565b5b611a4e8254611553565b611a59828285611992565b600060209050601f831160018114611a8c5760008415611a7a578287015190505b611a848582611a06565b865550611aec565b601f198416611a9a86611870565b60005b82811015611ac257848901518255600182019150602085019450602081019050611a9d565b86831015611adf5784890151611adb601f8916826119e8565b8355505b6001600288020188555050505b505050505050565b60006060820190508181036000830152611b0e8186611255565b90508181036020830152611b228185611255565b9050611b316040830184611235565b94935050505056fea2646970667358221220fd463bdf5f8bb3f7b1301a28242788290e439ec73dde07f09f43379d9ee551a164736f6c63430008150033",
  "immutableReferences": {},
  "source": "// SPDX-License-Identifier: MIT\r\n// MIT\r\n\r\npragma solidity ^0.8.0;\r\n// \r\n\r\ncontract FarmerContract {\r\n    // \r\n    struct Crop {\r\n        uint256 id;                     // \r\n        string name;                    // \r\n        string hash;                    // DNA\r\n        string image;            // IPFS\r\n        uint256 plantingTime;           // \r\n        uint256 harvestTime;            // \r\n        string source;                  // \r\n        string fertilizerType;          // \r\n        string pesticideUse;           // \r\n        uint8 status;                   // 1 2 \r\n    }\r\n\r\n    address public owner; // \r\n\r\n    // \r\n    mapping(uint256 => Crop) public crops;\r\n    // \r\n    mapping(string => bool) public cropHashExists;\r\n    // \r\n    uint256 public cropIdCounter;\r\n\r\n    // \r\n    event CropAdded(uint256 indexed id, string name, string hash, uint256 plantingTime);\r\n    event CropHarvested(uint256 indexed id, uint256 harvestTime);\r\n\r\n    // \r\n    modifier onlyOwner() {\r\n        require(msg.sender == owner, \"Access denied: Only owner can perform this action\");\r\n        _;\r\n    }\r\n    // \r\n    modifier onlyProducer() {\r\n        require(msg.sender == owner, \"Access denied: Only producer can perform this action\");\r\n        _;\r\n    }\r\n\r\n    // \r\n    constructor() {\r\n        owner = msg.sender;\r\n    }\r\n\r\n    // \r\n    function addCrop(string memory _name, string memory _hash, string memory _image, uint256 _plantingTime, string memory _source, string memory _fertilizerType, string memory _pesticideUse) public onlyProducer {\r\n        require(!cropHashExists[_hash], \"Error: Crop with this hash already exists\");\r\n        uint256 cropId = cropIdCounter++;\r\n        Crop memory newCrop = Crop(cropId, _name, _hash, _image, _plantingTime, 0, _source, _fertilizerType, _pesticideUse, 1);\r\n        crops[cropId] = newCrop;\r\n        cropHashExists[_hash] = true;\r\n        emit CropAdded(cropId, _name, _hash, _plantingTime);\r\n    }\r\n\r\n    // \r\n    function harvestCrop(uint256 _id) public onlyProducer {\r\n        Crop storage crop = crops[_id];\r\n        require(crop.id != 0, \"Error: Crop does not exist\");\r\n        require(crop.status == 1, \"Error: Crop has already been harvested\");\r\n        crop.harvestTime = block.timestamp;\r\n        crop.status = 2;\r\n        emit CropHarvested(_id, crop.harvestTime);\r\n    }\r\n\r\n    // \r\n    function getCropById(uint256 _id) public view returns (Crop memory crop) {\r\n        crop = crops[_id];\r\n    }\r\n}",
  "sourcePath": "D:\\2024.5\\ \\truffle\\contracts\\FarmerContract.sol",
  "compiler": {
    "name": "solc",
    "version": "0.8.21+commit.d9974bed.Emscripten.clang"
  },
  "schemaVersion": "3.4.16",
  "updatedAt": "2024-05-14T11:19:20.833Z",
  "networkType": "ethereum",
  "devdoc": {
    "kind": "dev",
    "methods": {},
    "version": 1
  },
  "userdoc": {
    "kind": "user",
    "methods": {},
    "version": 1
  }
}